{
  "contractName": "Main",
  "abi": [
    {
      "constant": true,
      "inputs": [
        {
          "name": "",
          "type": "uint256"
        }
      ],
      "name": "certifingUsers",
      "outputs": [
        {
          "name": "",
          "type": "address"
        }
      ],
      "payable": false,
      "stateMutability": "view",
      "type": "function"
    },
    {
      "constant": true,
      "inputs": [
        {
          "name": "",
          "type": "uint256"
        }
      ],
      "name": "productVersionIds",
      "outputs": [
        {
          "name": "",
          "type": "bytes32"
        }
      ],
      "payable": false,
      "stateMutability": "view",
      "type": "function"
    },
    {
      "constant": false,
      "inputs": [
        {
          "name": "_productId",
          "type": "bytes32"
        }
      ],
      "name": "acceptOwnershipTransfer",
      "outputs": [],
      "payable": false,
      "stateMutability": "nonpayable",
      "type": "function"
    },
    {
      "constant": true,
      "inputs": [
        {
          "name": "",
          "type": "uint256"
        }
      ],
      "name": "certificationIds",
      "outputs": [
        {
          "name": "",
          "type": "bytes32"
        }
      ],
      "payable": false,
      "stateMutability": "view",
      "type": "function"
    },
    {
      "constant": true,
      "inputs": [
        {
          "name": "",
          "type": "address"
        }
      ],
      "name": "actorAddressToActorStruct",
      "outputs": [
        {
          "name": "actorId",
          "type": "bytes32"
        },
        {
          "name": "name",
          "type": "string"
        },
        {
          "name": "accountAddress",
          "type": "address"
        },
        {
          "name": "physicalAddress",
          "type": "string"
        }
      ],
      "payable": false,
      "stateMutability": "view",
      "type": "function"
    },
    {
      "constant": true,
      "inputs": [
        {
          "name": "",
          "type": "bytes32"
        }
      ],
      "name": "productIdToProductStruct",
      "outputs": [
        {
          "name": "exists",
          "type": "bool"
        },
        {
          "name": "archived",
          "type": "bool"
        },
        {
          "name": "productId",
          "type": "bytes32"
        },
        {
          "name": "latestVersionId",
          "type": "bytes32"
        },
        {
          "name": "owner",
          "type": "address"
        },
        {
          "name": "nextAuthorizedOwnerAddress",
          "type": "address"
        },
        {
          "name": "name",
          "type": "string"
        },
        {
          "name": "description",
          "type": "string"
        },
        {
          "name": "selectedCategory",
          "type": "string"
        }
      ],
      "payable": false,
      "stateMutability": "view",
      "type": "function"
    },
    {
      "constant": false,
      "inputs": [
        {
          "name": "_productId",
          "type": "bytes32"
        },
        {
          "name": "_newOwnerAddress",
          "type": "address"
        }
      ],
      "name": "requestOwnershipTransfer",
      "outputs": [],
      "payable": false,
      "stateMutability": "nonpayable",
      "type": "function"
    },
    {
      "constant": true,
      "inputs": [
        {
          "name": "",
          "type": "bytes32"
        }
      ],
      "name": "certificationIdToCertificationStruct",
      "outputs": [
        {
          "name": "certificationId",
          "type": "bytes32"
        },
        {
          "name": "name",
          "type": "string"
        },
        {
          "name": "imageUrl",
          "type": "string"
        }
      ],
      "payable": false,
      "stateMutability": "view",
      "type": "function"
    },
    {
      "constant": true,
      "inputs": [
        {
          "name": "",
          "type": "bytes32"
        }
      ],
      "name": "versionIdToVersionStruct",
      "outputs": [
        {
          "name": "versionId",
          "type": "bytes32"
        },
        {
          "name": "previousVersionId",
          "type": "bytes32"
        },
        {
          "name": "creationDate",
          "type": "uint256"
        },
        {
          "name": "owner",
          "type": "address"
        },
        {
          "name": "holder",
          "type": "string"
        },
        {
          "name": "customJsonData",
          "type": "string"
        }
      ],
      "payable": false,
      "stateMutability": "view",
      "type": "function"
    },
    {
      "constant": true,
      "inputs": [
        {
          "name": "",
          "type": "uint256"
        }
      ],
      "name": "actorAddresses",
      "outputs": [
        {
          "name": "",
          "type": "address"
        }
      ],
      "payable": false,
      "stateMutability": "view",
      "type": "function"
    },
    {
      "constant": true,
      "inputs": [
        {
          "name": "",
          "type": "uint256"
        }
      ],
      "name": "productIds",
      "outputs": [
        {
          "name": "",
          "type": "bytes32"
        }
      ],
      "payable": false,
      "stateMutability": "view",
      "type": "function"
    },
    {
      "constant": true,
      "inputs": [
        {
          "name": "",
          "type": "address"
        },
        {
          "name": "",
          "type": "uint256"
        }
      ],
      "name": "ownerToProductsId",
      "outputs": [
        {
          "name": "",
          "type": "bytes32"
        }
      ],
      "payable": false,
      "stateMutability": "view",
      "type": "function"
    },
    {
      "constant": true,
      "inputs": [],
      "name": "ownerUser",
      "outputs": [
        {
          "name": "",
          "type": "address"
        }
      ],
      "payable": false,
      "stateMutability": "view",
      "type": "function"
    },
    {
      "inputs": [],
      "payable": false,
      "stateMutability": "nonpayable",
      "type": "constructor"
    },
    {
      "anonymous": false,
      "inputs": [
        {
          "indexed": false,
          "name": "newProductId",
          "type": "bytes32"
        },
        {
          "indexed": true,
          "name": "owner",
          "type": "address"
        }
      ],
      "name": "ProductCreated",
      "type": "event"
    },
    {
      "constant": false,
      "inputs": [
        {
          "name": "_newOwnerAddress",
          "type": "address"
        }
      ],
      "name": "updateOwnerUser",
      "outputs": [],
      "payable": false,
      "stateMutability": "nonpayable",
      "type": "function"
    },
    {
      "constant": true,
      "inputs": [],
      "name": "isUserOwner",
      "outputs": [
        {
          "name": "",
          "type": "bool"
        }
      ],
      "payable": false,
      "stateMutability": "view",
      "type": "function"
    },
    {
      "constant": false,
      "inputs": [
        {
          "name": "_name",
          "type": "string"
        },
        {
          "name": "_imageUrl",
          "type": "string"
        },
        {
          "name": "_certificationOwner",
          "type": "address"
        }
      ],
      "name": "createCertification",
      "outputs": [
        {
          "name": "certificationId",
          "type": "bytes32"
        }
      ],
      "payable": false,
      "stateMutability": "nonpayable",
      "type": "function"
    },
    {
      "constant": true,
      "inputs": [],
      "name": "getAllCertificationsIds",
      "outputs": [
        {
          "name": "certificationsIds",
          "type": "bytes32[]"
        }
      ],
      "payable": false,
      "stateMutability": "view",
      "type": "function"
    },
    {
      "constant": true,
      "inputs": [],
      "name": "getActorCertificationsIds",
      "outputs": [
        {
          "name": "certificationsIds",
          "type": "bytes32[]"
        }
      ],
      "payable": false,
      "stateMutability": "view",
      "type": "function"
    },
    {
      "constant": true,
      "inputs": [
        {
          "name": "_certificationId",
          "type": "bytes32"
        }
      ],
      "name": "getCertificationById",
      "outputs": [
        {
          "name": "name",
          "type": "string"
        },
        {
          "name": "imageUrl",
          "type": "string"
        }
      ],
      "payable": false,
      "stateMutability": "view",
      "type": "function"
    },
    {
      "constant": true,
      "inputs": [
        {
          "name": "_versionId",
          "type": "bytes32"
        }
      ],
      "name": "getVersionHolderById",
      "outputs": [
        {
          "name": "holder",
          "type": "string"
        }
      ],
      "payable": false,
      "stateMutability": "view",
      "type": "function"
    },
    {
      "constant": false,
      "inputs": [
        {
          "name": "_name",
          "type": "string"
        },
        {
          "name": "_description",
          "type": "string"
        },
        {
          "name": "_selectedCategory",
          "type": "string"
        },
        {
          "name": "_holder",
          "type": "string"
        },
        {
          "name": "_certificationsIds",
          "type": "bytes32[]"
        },
        {
          "name": "_customJsonData",
          "type": "string"
        }
      ],
      "name": "createProduct",
      "outputs": [
        {
          "name": "productId",
          "type": "bytes32"
        }
      ],
      "payable": false,
      "stateMutability": "nonpayable",
      "type": "function"
    },
    {
      "constant": false,
      "inputs": [
        {
          "name": "_productId",
          "type": "bytes32"
        },
        {
          "name": "_holder",
          "type": "string"
        },
        {
          "name": "_customJsonData",
          "type": "string"
        }
      ],
      "name": "updateProduct",
      "outputs": [],
      "payable": false,
      "stateMutability": "nonpayable",
      "type": "function"
    },
    {
      "constant": true,
      "inputs": [
        {
          "name": "_productId",
          "type": "bytes32"
        },
        {
          "name": "specificVersionId",
          "type": "bytes32"
        }
      ],
      "name": "getProductById",
      "outputs": [
        {
          "name": "name",
          "type": "string"
        },
        {
          "name": "description",
          "type": "string"
        },
        {
          "name": "selectedCategory",
          "type": "string"
        },
        {
          "name": "_holder",
          "type": "string"
        },
        {
          "name": "versionCreationDate",
          "type": "uint256"
        },
        {
          "name": "versions",
          "type": "bytes32[]"
        },
        {
          "name": "certificationsIds",
          "type": "bytes32[]"
        }
      ],
      "payable": false,
      "stateMutability": "view",
      "type": "function"
    },
    {
      "constant": true,
      "inputs": [
        {
          "name": "_productId",
          "type": "bytes32"
        },
        {
          "name": "specificVersionId",
          "type": "bytes32"
        }
      ],
      "name": "getProductCustomDataById",
      "outputs": [
        {
          "name": "customJsonData",
          "type": "string"
        }
      ],
      "payable": false,
      "stateMutability": "view",
      "type": "function"
    },
    {
      "constant": true,
      "inputs": [],
      "name": "getOwnerProducts",
      "outputs": [
        {
          "name": "productsIds",
          "type": "bytes32[]"
        }
      ],
      "payable": false,
      "stateMutability": "view",
      "type": "function"
    }
  ],
  "bytecode": "0x608060405234801561001057600080fd5b5033600960006101000a81548173ffffffffffffffffffffffffffffffffffffffff021916908373ffffffffffffffffffffffffffffffffffffffff1602179055506132e8806100616000396000f300608060405260043610610149576000357c0100000000000000000000000000000000000000000000000000000000900463ffffffff1680630ebb28211461014e5780630f42435b146101bb57806319a54cdd14610204578063370635e7146102355780633873ab2414610415578063395c211114610481578063468f9c31146104ca5780634a9011111461057457806353a7d56d146106de57806363802bd01461074a57806364aa3a48146107b6578063802e62dd146109d25780638495aa1714610c65578063860af69914610cb6578063876359e414610ddb5780639482300a14610f495780639b18220514610fb6578063cb51bba914611073578063d911f553146110bc578063db2b9f18146111d2578063db66037b1461123b578063de4d7bff14611326578063e21fd1b414611355578063e9baf25814611398578063edc8ffe914611450575b600080fd5b34801561015a57600080fd5b50610179600480360381019080803590602001909291905050506114a7565b604051808273ffffffffffffffffffffffffffffffffffffffff1673ffffffffffffffffffffffffffffffffffffffff16815260200191505060405180910390f35b3480156101c757600080fd5b506101e6600480360381019080803590602001909291905050506114e5565b60405180826000191660001916815260200191505060405180910390f35b34801561021057600080fd5b506102336004803603810190808035600019169060200190929190505050611508565b005b34801561024157600080fd5b506103f7600480360381019080803590602001908201803590602001908080601f0160208091040260200160405190810160405280939291908181526020018383808284378201915050505050509192919290803590602001908201803590602001908080601f0160208091040260200160405190810160405280939291908181526020018383808284378201915050505050509192919290803590602001908201803590602001908080601f0160208091040260200160405190810160405280939291908181526020018383808284378201915050505050509192919290803590602001908201803590602001908080601f016020809104026020016040519081016040528093929190818152602001838380828437820191505050505050919291929080359060200190820180359060200190808060200260200160405190810160405280939291908181526020018383602002808284378201915050505050509192919290803590602001908201803590602001908080601f01602080910402602001604051908101604052809392919081815260200183838082843782019150505050505091929192905050506116c7565b60405180826000191660001916815260200191505060405180910390f35b34801561042157600080fd5b5061042a61199b565b6040518080602001828103825283818151815260200191508051906020019060200280838360005b8381101561046d578082015181840152602081019050610452565b505050509050019250505060405180910390f35b34801561048d57600080fd5b506104ac60048036038101908080359060200190929190505050611b12565b60405180826000191660001916815260200191505060405180910390f35b3480156104d657600080fd5b506104f96004803603810190808035600019169060200190929190505050611b35565b6040518080602001828103825283818151815260200191508051906020019080838360005b8381101561053957808201518184015260208101905061051e565b50505050905090810190601f1680156105665780820380516001836020036101000a031916815260200191505b509250505060405180910390f35b34801561058057600080fd5b506105b5600480360381019080803573ffffffffffffffffffffffffffffffffffffffff169060200190929190505050611bfb565b604051808560001916600019168152602001806020018473ffffffffffffffffffffffffffffffffffffffff1673ffffffffffffffffffffffffffffffffffffffff16815260200180602001838103835286818151815260200191508051906020019080838360005b8381101561063957808201518184015260208101905061061e565b50505050905090810190601f1680156106665780820380516001836020036101000a031916815260200191505b50838103825284818151815260200191508051906020019080838360005b8381101561069f578082015181840152602081019050610684565b50505050905090810190601f1680156106cc5780820380516001836020036101000a031916815260200191505b50965050505050505060405180910390f35b3480156106ea57600080fd5b506106f3611d7b565b6040518080602001828103825283818151815260200191508051906020019060200280838360005b8381101561073657808201518184015260208101905061071b565b505050509050019250505060405180910390f35b34801561075657600080fd5b5061075f611e14565b6040518080602001828103825283818151815260200191508051906020019060200280838360005b838110156107a2578082015181840152602081019050610787565b505050509050019250505060405180910390f35b3480156107c257600080fd5b506107e56004803603810190808035600019169060200190929190505050611e70565b604051808a15151515815260200189151515158152602001886000191660001916815260200187600019166000191681526020018673ffffffffffffffffffffffffffffffffffffffff1673ffffffffffffffffffffffffffffffffffffffff1681526020018573ffffffffffffffffffffffffffffffffffffffff1673ffffffffffffffffffffffffffffffffffffffff168152602001806020018060200180602001848103845287818151815260200191508051906020019080838360005b838110156108c15780820151818401526020810190506108a6565b50505050905090810190601f1680156108ee5780820380516001836020036101000a031916815260200191505b50848103835286818151815260200191508051906020019080838360005b8381101561092757808201518184015260208101905061090c565b50505050905090810190601f1680156109545780820380516001836020036101000a031916815260200191505b50848103825285818151815260200191508051906020019080838360005b8381101561098d578082015181840152602081019050610972565b50505050905090810190601f1680156109ba5780820380516001836020036101000a031916815260200191505b509c5050505050505050505050505060405180910390f35b3480156109de57600080fd5b50610a0f600480360381019080803560001916906020019092919080356000191690602001909291905050506120e0565b6040518080602001806020018060200180602001888152602001806020018060200187810387528e818151815260200191508051906020019080838360005b83811015610a69578082015181840152602081019050610a4e565b50505050905090810190601f168015610a965780820380516001836020036101000a031916815260200191505b5087810386528d818151815260200191508051906020019080838360005b83811015610acf578082015181840152602081019050610ab4565b50505050905090810190601f168015610afc5780820380516001836020036101000a031916815260200191505b5087810385528c818151815260200191508051906020019080838360005b83811015610b35578082015181840152602081019050610b1a565b50505050905090810190601f168015610b625780820380516001836020036101000a031916815260200191505b5087810384528b818151815260200191508051906020019080838360005b83811015610b9b578082015181840152602081019050610b80565b50505050905090810190601f168015610bc85780820380516001836020036101000a031916815260200191505b50878103835289818151815260200191508051906020019060200280838360005b83811015610c04578082015181840152602081019050610be9565b50505050905001878103825288818151815260200191508051906020019060200280838360005b83811015610c46578082015181840152602081019050610c2b565b505050509050019d505050505050505050505050505060405180910390f35b348015610c7157600080fd5b50610cb46004803603810190808035600019169060200190929190803573ffffffffffffffffffffffffffffffffffffffff169060200190929190505050612507565b005b348015610cc257600080fd5b50610ce560048036038101908080356000191690602001909291905050506125de565b6040518084600019166000191681526020018060200180602001838103835285818151815260200191508051906020019080838360005b83811015610d37578082015181840152602081019050610d1c565b50505050905090810190601f168015610d645780820380516001836020036101000a031916815260200191505b50838103825284818151815260200191508051906020019080838360005b83811015610d9d578082015181840152602081019050610d82565b50505050905090810190601f168015610dca5780820380516001836020036101000a031916815260200191505b509550505050505060405180910390f35b348015610de757600080fd5b50610e0a6004803603810190808035600019169060200190929190505050612738565b60405180876000191660001916815260200186600019166000191681526020018581526020018473ffffffffffffffffffffffffffffffffffffffff1673ffffffffffffffffffffffffffffffffffffffff1681526020018060200180602001838103835285818151815260200191508051906020019080838360005b83811015610ea2578082015181840152602081019050610e87565b50505050905090810190601f168015610ecf5780820380516001836020036101000a031916815260200191505b50838103825284818151815260200191508051906020019080838360005b83811015610f08578082015181840152602081019050610eed565b50505050905090810190601f168015610f355780820380516001836020036101000a031916815260200191505b509850505050505050505060405180910390f35b348015610f5557600080fd5b50610f74600480360381019080803590602001909291905050506128c4565b604051808273ffffffffffffffffffffffffffffffffffffffff1673ffffffffffffffffffffffffffffffffffffffff16815260200191505060405180910390f35b348015610fc257600080fd5b506110716004803603810190808035600019169060200190929190803590602001908201803590602001908080601f0160208091040260200160405190810160405280939291908181526020018383808284378201915050505050509192919290803590602001908201803590602001908080601f0160208091040260200160405190810160405280939291908181526020018383808284378201915050505050509192919290505050612902565b005b34801561107f57600080fd5b5061109e60048036038101908080359060200190929190505050612b1e565b60405180826000191660001916815260200191505060405180910390f35b3480156110c857600080fd5b506110eb6004803603810190808035600019169060200190929190505050612b41565b604051808060200180602001838103835285818151815260200191508051906020019080838360005b8381101561112f578082015181840152602081019050611114565b50505050905090810190601f16801561115c5780820380516001836020036101000a031916815260200191505b50838103825284818151815260200191508051906020019080838360005b8381101561119557808201518184015260208101905061117a565b50505050905090810190601f1680156111c25780820380516001836020036101000a031916815260200191505b5094505050505060405180910390f35b3480156111de57600080fd5b5061121d600480360381019080803573ffffffffffffffffffffffffffffffffffffffff16906020019092919080359060200190929190505050612cad565b60405180826000191660001916815260200191505060405180910390f35b34801561124757600080fd5b50611308600480360381019080803590602001908201803590602001908080601f0160208091040260200160405190810160405280939291908181526020018383808284378201915050505050509192919290803590602001908201803590602001908080601f0160208091040260200160405190810160405280939291908181526020018383808284378201915050505050509192919290803573ffffffffffffffffffffffffffffffffffffffff169060200190929190505050612cdd565b60405180826000191660001916815260200191505060405180910390f35b34801561133257600080fd5b5061133b612ed5565b604051808215151515815260200191505060405180910390f35b34801561136157600080fd5b50611396600480360381019080803573ffffffffffffffffffffffffffffffffffffffff169060200190929190505050612f2d565b005b3480156113a457600080fd5b506113d560048036038101908080356000191690602001909291908035600019169060200190929190505050613009565b6040518080602001828103825283818151815260200191508051906020019080838360005b838110156114155780820151818401526020810190506113fa565b50505050905090810190601f1680156114425780820380516001836020036101000a031916815260200191505b509250505060405180910390f35b34801561145c57600080fd5b50611465613179565b604051808273ffffffffffffffffffffffffffffffffffffffff1673ffffffffffffffffffffffffffffffffffffffff16815260200191505060405180910390f35b600a818154811015156114b657fe5b906000526020600020016000915054906101000a900473ffffffffffffffffffffffffffffffffffffffff1681565b6003818154811015156114f457fe5b906000526020600020016000915090505481565b6000806000836000191660001916815260200190815260200160002060060160009054906101000a900473ffffffffffffffffffffffffffffffffffffffff1673ffffffffffffffffffffffffffffffffffffffff168160020160009054906101000a900473ffffffffffffffffffffffffffffffffffffffff1673ffffffffffffffffffffffffffffffffffffffff161415156115a557600080fd5b600560003373ffffffffffffffffffffffffffffffffffffffff1673ffffffffffffffffffffffffffffffffffffffff16815260200190815260200160002090506000806000846000191660001916815260200190815260200160002060060160006101000a81548173ffffffffffffffffffffffffffffffffffffffff021916908373ffffffffffffffffffffffffffffffffffffffff1602179055508060020160009054906101000a900473ffffffffffffffffffffffffffffffffffffffff16600080846000191660001916815260200190815260200160002060050160006101000a81548173ffffffffffffffffffffffffffffffffffffffff021916908373ffffffffffffffffffffffffffffffffffffffff1602179055505050565b60008060004233604051808381526020018273ffffffffffffffffffffffffffffffffffffffff1673ffffffffffffffffffffffffffffffffffffffff166c01000000000000000000000000028152601401925050506040518091039020915060008083600019166000191681526020019081526020016000209050818160010181600019169055507f300000000000000000000000000000000000000000000000000000000000000081600201816000191690555060006040519080825280602002602001820160405280156117ad5781602001602082028038833980820191505090505b508160030190805190602001906117c592919061319f565b5060008160000160016101000a81548160ff021916908315150217905550338160050160006101000a81548173ffffffffffffffffffffffffffffffffffffffff021916908373ffffffffffffffffffffffffffffffffffffffff1602179055508881600701908051906020019061183e9291906131f2565b50878160080190805190602001906118579291906131f2565b50868160090190805190602001906118709291906131f2565b508481600401908051906020019061188992919061319f565b506001829080600181540180825580915050906001820390600052602060002001600090919290919091509060001916905550600460003373ffffffffffffffffffffffffffffffffffffffff1673ffffffffffffffffffffffffffffffffffffffff168152602001908152602001600020829080600181540180825580915050906001820390600052602060002001600090919290919091509060001916905550611936828786612902565b3373ffffffffffffffffffffffffffffffffffffffff167f1f3cd26d22ddb1ce87773315d1a9a80f4c46a7aaf7a8d3c23827523b8976f9128360405180826000191660001916815260200191505060405180910390a281925050509695505050505050565b60608060606000600460003373ffffffffffffffffffffffffffffffffffffffff1673ffffffffffffffffffffffffffffffffffffffff168152602001908152602001600020805480602002602001604051908101604052809291908181526020018280548015611a2f57602002820191906000526020600020905b81546000191681526020019060010190808311611a17575b505050505092508251604051908082528060200260200182016040528015611a665781602001602082028038833980820191505090505b509150600090505b8251811015611b09576000808483815181101515611a8857fe5b906020019060200201516000191660001916815260200190815260200160002060000160019054906101000a900460ff161515611afe578281815181101515611acd57fe5b906020019060200201518282815181101515611ae557fe5b9060200190602002019060001916908160001916815250505b806001019050611a6e565b81935050505090565b600881815481101515611b2157fe5b906000526020600020016000915090505481565b606060006002600084600019166000191681526020019081526020016000209050806004018054600181600116156101000203166002900480601f016020809104026020016040519081016040528092919081815260200182805460018160011615610100020316600290048015611bee5780601f10611bc357610100808354040283529160200191611bee565b820191906000526020600020905b815481529060010190602001808311611bd157829003601f168201915b5050505050915050919050565b6005602052806000526040600020600091509050806000015490806001018054600181600116156101000203166002900480601f016020809104026020016040519081016040528092919081815260200182805460018160011615610100020316600290048015611cad5780601f10611c8257610100808354040283529160200191611cad565b820191906000526020600020905b815481529060010190602001808311611c9057829003601f168201915b5050505050908060020160009054906101000a900473ffffffffffffffffffffffffffffffffffffffff1690806003018054600181600116156101000203166002900480601f016020809104026020016040519081016040528092919081815260200182805460018160011615610100020316600290048015611d715780601f10611d4657610100808354040283529160200191611d71565b820191906000526020600020905b815481529060010190602001808311611d5457829003601f168201915b5050505050905084565b6060600b60003373ffffffffffffffffffffffffffffffffffffffff1673ffffffffffffffffffffffffffffffffffffffff168152602001908152602001600020805480602002602001604051908101604052809291908181526020018280548015611e0a57602002820191906000526020600020905b81546000191681526020019060010190808311611df2575b5050505050905090565b60606008805480602002602001604051908101604052809291908181526020018280548015611e6657602002820191906000526020600020905b81546000191681526020019060010190808311611e4e575b5050505050905090565b60006020528060005260406000206000915090508060000160009054906101000a900460ff16908060000160019054906101000a900460ff16908060010154908060020154908060050160009054906101000a900473ffffffffffffffffffffffffffffffffffffffff16908060060160009054906101000a900473ffffffffffffffffffffffffffffffffffffffff1690806007018054600181600116156101000203166002900480601f016020809104026020016040519081016040528092919081815260200182805460018160011615610100020316600290048015611f9a5780601f10611f6f57610100808354040283529160200191611f9a565b820191906000526020600020905b815481529060010190602001808311611f7d57829003601f168201915b505050505090806008018054600181600116156101000203166002900480601f0160208091040260200160405190810160405280929190818152602001828054600181600116156101000203166002900480156120385780601f1061200d57610100808354040283529160200191612038565b820191906000526020600020905b81548152906001019060200180831161201b57829003601f168201915b505050505090806009018054600181600116156101000203166002900480601f0160208091040260200160405190810160405280929190818152602001828054600181600116156101000203166002900480156120d65780601f106120ab576101008083540402835291602001916120d6565b820191906000526020600020905b8154815290600101906020018083116120b957829003601f168201915b5050505050905089565b60608060608060006060806000808a600080826000191660001916815260200190815260200160002060000160009054906101000a900460ff16151561212557600080fd5b6000808d6000191660001916815260200190815260200160002092507f6c617465737400000000000000000000000000000000000000000000000000008b600019161415612193576002600084600201546000191660001916815260200190815260200160002091506121b1565b600260008c6000191660001916815260200190815260200160002091505b8260070183600801846009018460040185600201548760030188600401868054600181600116156101000203166002900480601f0160208091040260200160405190810160405280929190818152602001828054600181600116156101000203166002900480156122635780601f1061223857610100808354040283529160200191612263565b820191906000526020600020905b81548152906001019060200180831161224657829003601f168201915b50505050509650858054600181600116156101000203166002900480601f0160208091040260200160405190810160405280929190818152602001828054600181600116156101000203166002900480156122ff5780601f106122d4576101008083540402835291602001916122ff565b820191906000526020600020905b8154815290600101906020018083116122e257829003601f168201915b50505050509550848054600181600116156101000203166002900480601f01602080910402602001604051908101604052809291908181526020018280546001816001161561010002031660029004801561239b5780601f106123705761010080835404028352916020019161239b565b820191906000526020600020905b81548152906001019060200180831161237e57829003601f168201915b50505050509450838054600181600116156101000203166002900480601f0160208091040260200160405190810160405280929190818152602001828054600181600116156101000203166002900480156124375780601f1061240c57610100808354040283529160200191612437565b820191906000526020600020905b81548152906001019060200180831161241a57829003601f168201915b505050505093508180548060200260200160405190810160405280929190818152602001828054801561248d57602002820191906000526020600020905b81546000191681526020019060010190808311612475575b50505050509150808054806020026020016040519081016040528092919081815260200182805480156124e357602002820191906000526020600020905b815460001916815260200190600101908083116124cb575b50505050509050995099509950995099509950995050505092959891949750929550565b600080836000191660001916815260200190815260200160002060050160009054906101000a900473ffffffffffffffffffffffffffffffffffffffff1673ffffffffffffffffffffffffffffffffffffffff163373ffffffffffffffffffffffffffffffffffffffff1614151561257e57600080fd5b80600080846000191660001916815260200190815260200160002060060160006101000a81548173ffffffffffffffffffffffffffffffffffffffff021916908373ffffffffffffffffffffffffffffffffffffffff1602179055505050565b6007602052806000526040600020600091509050806000015490806001018054600181600116156101000203166002900480601f0160208091040260200160405190810160405280929190818152602001828054600181600116156101000203166002900480156126905780601f1061266557610100808354040283529160200191612690565b820191906000526020600020905b81548152906001019060200180831161267357829003601f168201915b505050505090806002018054600181600116156101000203166002900480601f01602080910402602001604051908101604052809291908181526020018280546001816001161561010002031660029004801561272e5780601f106127035761010080835404028352916020019161272e565b820191906000526020600020905b81548152906001019060200180831161271157829003601f168201915b5050505050905083565b60026020528060005260406000206000915090508060000154908060010154908060020154908060030160009054906101000a900473ffffffffffffffffffffffffffffffffffffffff1690806004018054600181600116156101000203166002900480601f01602080910402602001604051908101604052809291908181526020018280546001816001161561010002031660029004801561281c5780601f106127f15761010080835404028352916020019161281c565b820191906000526020600020905b8154815290600101906020018083116127ff57829003601f168201915b505050505090806005018054600181600116156101000203166002900480601f0160208091040260200160405190810160405280929190818152602001828054600181600116156101000203166002900480156128ba5780601f1061288f576101008083540402835291602001916128ba565b820191906000526020600020905b81548152906001019060200180831161289d57829003601f168201915b5050505050905086565b6006818154811015156128d357fe5b906000526020600020016000915054906101000a900473ffffffffffffffffffffffffffffffffffffffff1681565b600080600085600080826000191660001916815260200190815260200160002060000160009054906101000a900460ff16151561293e57600080fd5b60008088600019166000191681526020019081526020016000209350423388604051808481526020018373ffffffffffffffffffffffffffffffffffffffff1673ffffffffffffffffffffffffffffffffffffffff166c01000000000000000000000000028152601401826000191660001916815260200193505050506040518091039020925060026000846000191660001916815260200190815260200160002091508282600001816000191690555042826002018190555083600201548260010181600019169055508360050160009054906101000a900473ffffffffffffffffffffffffffffffffffffffff168260030160006101000a81548173ffffffffffffffffffffffffffffffffffffffff021916908373ffffffffffffffffffffffffffffffffffffffff16021790555085826004019080519060200190612a889291906131f2565b5084826005019080519060200190612aa19291906131f2565b506003839080600181540180825580915050906001820390600052602060002001600090919290919091509060001916905550836003018390806001815401808255809150509060018203906000526020600020016000909192909190915090600019169055508284600201816000191690555050505050505050565b600181815481101515612b2d57fe5b906000526020600020016000915090505481565b606080600060076000856000191660001916815260200190815260200160002090508060010181600201818054600181600116156101000203166002900480601f016020809104026020016040519081016040528092919081815260200182805460018160011615610100020316600290048015612c005780601f10612bd557610100808354040283529160200191612c00565b820191906000526020600020905b815481529060010190602001808311612be357829003601f168201915b50505050509150808054600181600116156101000203166002900480601f016020809104026020016040519081016040528092919081815260200182805460018160011615610100020316600290048015612c9c5780601f10612c7157610100808354040283529160200191612c9c565b820191906000526020600020905b815481529060010190602001808311612c7f57829003601f168201915b505050505090509250925050915091565b600460205281600052604060002081815481101515612cc857fe5b90600052602060002001600091509150505481565b60008060004286336040518084815260200183805190602001908083835b602083101515612d205780518252602082019150602081019050602083039250612cfb565b6001836020036101000a0380198251168184511680821785525050505050509050018273ffffffffffffffffffffffffffffffffffffffff1673ffffffffffffffffffffffffffffffffffffffff166c0100000000000000000000000002815260140193505050506040518091039020915060076000836000191660001916815260200190815260200160002090508181600001816000191690555085816001019080519060200190612dd49291906131f2565b5084816002019080519060200190612ded9291906131f2565b506008829080600181540180825580915050906001820390600052602060002001600090919290919091509060001916905550600b60008073ffffffffffffffffffffffffffffffffffffffff168673ffffffffffffffffffffffffffffffffffffffff1614612e5d5785612e5f565b335b73ffffffffffffffffffffffffffffffffffffffff1673ffffffffffffffffffffffffffffffffffffffff16815260200190815260200160002082908060018154018082558091505090600182039060005260206000200160009091929091909150906000191690555081925050509392505050565b60003373ffffffffffffffffffffffffffffffffffffffff16600960009054906101000a900473ffffffffffffffffffffffffffffffffffffffff1673ffffffffffffffffffffffffffffffffffffffff1614905090565b600960009054906101000a900473ffffffffffffffffffffffffffffffffffffffff1673ffffffffffffffffffffffffffffffffffffffff163373ffffffffffffffffffffffffffffffffffffffff16141515612f8957600080fd5b600073ffffffffffffffffffffffffffffffffffffffff168173ffffffffffffffffffffffffffffffffffffffff1614151515612fc557600080fd5b80600960006101000a81548173ffffffffffffffffffffffffffffffffffffffff021916908373ffffffffffffffffffffffffffffffffffffffff16021790555050565b606060008084600080826000191660001916815260200190815260200160002060000160009054906101000a900460ff16151561304557600080fd5b600080876000191660001916815260200190815260200160002092507f6c61746573740000000000000000000000000000000000000000000000000000856000191614156130b3576002600084600201546000191660001916815260200190815260200160002091506130d1565b60026000866000191660001916815260200190815260200160002091505b816005018054600181600116156101000203166002900480601f0160208091040260200160405190810160405280929190818152602001828054600181600116156101000203166002900480156131695780601f1061313e57610100808354040283529160200191613169565b820191906000526020600020905b81548152906001019060200180831161314c57829003601f168201915b5050505050935050505092915050565b600960009054906101000a900473ffffffffffffffffffffffffffffffffffffffff1681565b8280548282559060005260206000209081019282156131e1579160200282015b828111156131e05782518290600019169055916020019190600101906131bf565b5b5090506131ee9190613272565b5090565b828054600181600116156101000203166002900490600052602060002090601f016020900481019282601f1061323357805160ff1916838001178555613261565b82800160010185558215613261579182015b82811115613260578251825591602001919060010190613245565b5b50905061326e9190613297565b5090565b61329491905b80821115613290576000816000905550600101613278565b5090565b90565b6132b991905b808211156132b557600081600090555060010161329d565b5090565b905600a165627a7a72305820fe929b57ce81abe9b80a6aff307bf51b2d5a31951ac231ba745bb7d332ff5fb50029",
  "source": "pragma solidity ^0.4.19;\n\nimport \"./Helper.sol\";\nimport \"./Dictionary.sol\";\n\ncontract Main is Helper {\n        \n    using DictionaryBytes32Uint for DictionaryBytes32Uint.Data;\n    DictionaryBytes32Uint.Data private dic;    \n\n    function Main() public {\n      ownerUser = msg.sender;\n    }\n    \n    function updateOwnerUser(address _newOwnerAddress) public onlyOwner {\n        require(_newOwnerAddress != address(0));\n        ownerUser = _newOwnerAddress;\n    }\n\n    function isUserOwner() external view returns (bool) {\n        return ownerUser == msg.sender;\n    }\n\n    function createCertification(\n        string _name,\n        string _imageUrl,\n        address _certificationOwner\n    ) public returns (bytes32 certificationId) {\n    \n        bytes32 newCertificationId = keccak256(now, _name, msg.sender);\n\n        var certification = certificationIdToCertificationStruct[newCertificationId];\n\n        certification.certificationId = newCertificationId;\n        certification.name = _name;\n        certification.imageUrl = _imageUrl;\n\n        certificationIds.push(newCertificationId);\n\n        certifiersAddressToCertificationIds[_certificationOwner == address(0) ? msg.sender : _certificationOwner].push(newCertificationId);\n\n        return newCertificationId;\n    }\n\n    function getAllCertificationsIds() external view returns (bytes32[] certificationsIds) {\n        return certificationIds;\n    }\n\n    function getActorCertificationsIds() external view returns (bytes32[] certificationsIds) {\n        return certifiersAddressToCertificationIds[msg.sender];\n    }\n\n    function getCertificationById(bytes32 _certificationId) external view returns (string name, string imageUrl) {\n\n        Certification storage certification = certificationIdToCertificationStruct[_certificationId];\n        return (certification.name, certification.imageUrl);\n    }\n\n    function getVersionHolderById(bytes32 _versionId) external view returns (string holder) {\n\n        ProductVersion storage version = versionIdToVersionStruct[_versionId];\n        return (version.holder);\n    }\n\n    function createProduct(\n      string _name,\n      string _description,\n      string _selectedCategory,\n      string _holder,\n      bytes32[] _certificationsIds,\n      string _customJsonData\n    ) public returns (bytes32 productId) {\n    \n        // Generate a pseudo-random product ID\n        bytes32 newProductId = keccak256(now, msg.sender);\n\n        var product = productIdToProductStruct[newProductId];\n\n        product.productId = newProductId;\n        product.latestVersionId = \"0\"; \n        product.versions = new bytes32[](0); \n        product.archived = false;\n        product.owner = msg.sender;\n\n        product.name = _name;\n        product.description = _description;\n        product.selectedCategory = _selectedCategory;\n\n        product.certificationsIds = _certificationsIds;\n\n        productIds.push(newProductId);\n        ownerToProductsId[msg.sender].push(newProductId);\n        updateProduct(newProductId, _holder, _customJsonData);\n\n        // Fire an event to announce the creation\n        ProductCreated(newProductId, msg.sender);\n\n        return newProductId;\n    }\n\n    function updateProduct(\n      bytes32 _productId, \n      string _holder,\n      string _customJsonData\n    ) public productIdExists(_productId) {\n\n        // Get product from storage works like traditional db\n        Product storage product = productIdToProductStruct[_productId];\n\n        // Generate a pseudo-random product ID\n        bytes32 newVersionId = keccak256(now, msg.sender, _productId);\n\n        var version = versionIdToVersionStruct[newVersionId];\n\n        version.versionId = newVersionId;\n        version.creationDate = now;\n        version.previousVersionId = product.latestVersionId;\n        version.owner = product.owner;\n\n        version.holder = _holder;\n        version.customJsonData = _customJsonData;\n\n        productVersionIds.push(newVersionId);\n        product.versions.push(newVersionId);\n\n        product.latestVersionId = newVersionId;\n    }\n\n    function getProductById(bytes32 _productId, bytes32 specificVersionId) external view productIdExists(_productId)\n    returns (string name, string description, string selectedCategory, string _holder, uint versionCreationDate, bytes32[] versions, bytes32[] certificationsIds) {\n\n      Product storage product = productIdToProductStruct[_productId];\n\n      ProductVersion storage requestedVersion;\n\n      if (specificVersionId == \"latest\") {\n        requestedVersion = versionIdToVersionStruct[product.latestVersionId];\n\n      } else {\n        requestedVersion = versionIdToVersionStruct[specificVersionId];\n      }\n      return (product.name, product.description, product.selectedCategory, requestedVersion.holder, requestedVersion.creationDate, product.versions, product.certificationsIds);\n\n    }\n\n    function getProductCustomDataById(bytes32 _productId, bytes32 specificVersionId) external view productIdExists(_productId)\n    returns (string customJsonData) {\n\n        Product storage product = productIdToProductStruct[_productId];\n\n        ProductVersion storage requestedVersion;\n\n        if (specificVersionId == \"latest\") {\n          requestedVersion = versionIdToVersionStruct[product.latestVersionId];\n\n        } else {\n          requestedVersion = versionIdToVersionStruct[specificVersionId];\n        }\n\n        return (requestedVersion.customJsonData);\n\n    }\n\n\n    function getOwnerProducts() external view returns (bytes32[] productsIds) {\n\n        bytes32[] memory ownedProductsIds = ownerToProductsId[msg.sender];\n        bytes32[] memory activeProducts = new bytes32[](ownedProductsIds.length);\n\n        for (uint i = 0; i < ownedProductsIds.length; ++i) {\n            if (!productIdToProductStruct[ownedProductsIds[i]].archived) {\n                activeProducts[i] = ownedProductsIds[i];\n            }\n        }\n\n        return activeProducts;\n    }\n    \n}\n",
  "sourcePath": "C:\\Users\\yyb\\desktop\\bcproject\\project\\contracts\\Main.sol",
  "compiler": {
    "name": "solc",
    "version": "0.4.23+commit.124ca40d.Emscripten.clang"
  },
  "schemaVersion": "2.0.0",
  "updatedAt": "2019-06-11T09:34:45.153Z"
}